:020000040000fa
:080000000002040000000000f2
:020000040000fa
:100008009a0200009a0200009a0200009a02000078
:100018009a0200009a0200009a0200009a02000068
:100028009a0200009a0200009a0200009a02000058
:100038009a0200009a0200009a0200009a02000048
:020000040000fa
:020000040000fa
:100400000f8020000eff20000e0188000000000079
:10041000000020000000e000020032000001200087
:10042000200288000c000700606720000100200007
:1004300011000700000020000000e0000200320070
:10044000000002000000000008060200000000009a
:100450000040da000000fe004440a9000000200037
:100460000000e0000300320000002000a00188002e
:100470004440a80000000600910188008000780038
:100480000000eb0015003700e280400032a0b4000d
:100490009101ba00e280400032a0b4009102ba009b
:1004a000e280400032a0b4000002eb00472bde00e7
:1004b000f507b200602ce10004003a000059eb009f
:1004c0008301e900fdff3e00040037006128e100e0
:1004d000010032000082eb00040007001101ba00a5
:1004e0000200e000e8ff3a00000006003159ba00bf
:1004f0008301e9000c0032002159ba008301e900b0
:10050000080032000400e00003003a00e2804000ee
:1005100032a0b400f5ff370011d9ba008301e90019
:10052000faff3a008100e800e180400032a0b40008
:0c053000000006000040da000000fe00a1
:020000040000fa
:10053c000200fa00000f7800500620009e007800a0
:10054c00808f50000a003c00f0002000a201070040
:10055c00e0002000a0010700d00020009e01070051
:10056c00c00020009c010700b00020009a01070089
:10057c00500620009e007800808f50000e00340042
:10058c00b00c20009e007800808f50000a003c00c8
:10059c00f000200084010700e00020008e0107001d
:1005ac00d00020008c010700c00020008a01070049
:1005bc00b000200088010700b00c20009e007800dd
:1005cc00808f50000e003400101320009e00780025
:1005dc00808f50000a003c00f000200072010700e0
:1005ec00e000200070010700d00020007a01070015
:1005fc00c000200078010700b00020007601070041
:10060c00101320009e007800808f50000e003400e4
:10061c00701920009e007800808f50000a003c006a
:10062c00f000200060010700e00020005e010700e0
:10063c00d00020005c010700c0002000660107000c
:10064c00b000200064010700701920009e007800a3
:10065c00808f50000e003400002020009e00780097
:10066c00808f50000a003c00f00020004e01070073
:10067c00e00020004c010700d00020004a010700d8
:10068c00c000200048010700b00020005201070004
:10069c00002020009e007800808f50000a0034005b
:1006ac00f000200040010700e00020003e010700a0
:1006bc00d00020003c010700c00020003a010700d8
:1006cc00b0002000380107000080fa00000006008e
:1006dc000200fa00000f7800500920009e007800fc
:1006ec00808f50000a003c00a00020003a01070057
:1006fc009000200038010700800020003601070020
:10070c007000200034010700600020003201070057
:10071c00500920009e007800808f50000e0034009d
:10072c00700c20009e007800808f50000a003c0066
:10073c00a00020001c0107009000200026010700eb
:10074c008000200024010700700020002201070017
:10075c006000200020010700700c20009e00780033
:10076c00808f50000e003400b01220009e007800e4
:10077c00808f50000a003c00a00020000a010700f6
:10078c0090002000080107008000200012010700e3
:10079c007000200010010700600020000e0107000f
:1007ac00b01220009e007800808f50000e003400a4
:1007bc00b02b20009e007800808f50000a003c0077
:1007cc00a0002000f800070090002000f6000700b1
:1007dc0080002000f400070070002000fe000700dd
:1007ec0060002000fc000700b02b20009e00780069
:1007fc00808f50000e003400403820009e0078009e
:10080c00808f50000a003c00a0002000e60007008a
:10081c0090002000e400070080002000e2000700a8
:10082c0070002000e000070060002000ea000700d4
:10083c00403820009e007800808f50000a00340061
:10084c00a0002000d800070090002000d600070070
:10085c0080002000d400070070002000d2000700a8
:10086c0060002000d00007000080fa0000000600a5
:10087c000200fa00000f7800500920009e0078005a
:10088c00808f50000a003c00a0002000d20007001e
:10089c0090002000d000070080002000ce00070050
:1008ac0070002000cc00070060002000ca00070088
:1008bc00500920009e007800808f50000e003400fc
:1008cc00700c20009e007800808f50000a003c00c5
:1008dc00a0002000b400070090002000be0007001c
:1008ec0080002000bc00070070002000ba00070048
:1008fc0060002000b8000700700c20009e007800fb
:10090c00808f50000e003400b01220009e00780042
:10091c00808f50000a003c00a0002000a2000700bd
:10092c0090002000a000070080002000aa00070013
:10093c0070002000a800070060002000a60007003f
:10094c00b01220009e007800808f50000e00340002
:10095c00b02b20009e007800808f50000a003c00d5
:10096c00a000200090000700900020008e000700df
:10097c00800020008c00070070002000960007000b
:10098c006000200094000700b02b20009e0078002f
:10099c00808f50000e003400403820009e007800fc
:1009ac00808f50000a003c00a00020007e00070051
:1009bc00900020007c000700800020007a000700d7
:1009cc007000200078000700600020008200070003
:1009dc00403820009e007800808f50000a003400c0
:1009ec00a000200070000700900020006e0007009f
:1009fc00800020006c000700700020006a000700d7
:100a0c0060002000680007000080fa00000006006b
:100a1c000400fa00000f7800110798001e007800ff
:100a2c00ef00600040168000010070004016880046
:100a3c001e007800e30060000016800001007000ca
:100a4c00001688001e80ea00601988001e007800dd
:100a5c008019880050102000201988001e0090007a
:100a6c00c200dd0000402000010070001019880059
:100a7c00400e2800001988000080fa0000000600d3
:100a8c000800fa0020079800310798000030200079
:100a9c001007980085a0a900000000002104800028
:100aac0000002200008060000000e000fbff32002c
:100abc000000eb00000f78000b0037001e007800e0
:100acc0000004000be009000808040001e007800b6
:100adc00000040001e019000000041001000780052
:100aec00800878001e0fe8002e0090009e00780011
:100afc00808f5000f1ff35000080fa0000000600e6
:100b0c000000fa00213a800000fe2f0000806000f7
:100b1c00203a880090022000303a8800203a800069
:100b2c000060a1000070a100203a88001200200093
:100b3c0080072000a1092000337420008049780030
:100b4c008149780082497800103a800000017800d1
:100b5c000200a00060042000710520002374200016
:100b6c0080497800814978008249780000000000b3
:100b7c00113a8000000027008080600000002100f6
:100b8c00808f5000faff3a0000000000113a8000fc
:100b9c0000022000008060000000e000fbff32003b
:100bac000080fa00000006000200fa00000f780036
:100bbc00110020001e0078000008dd000080ea0013
:100bcc00800078005016800000806000501688006d
:100bdc000080fa00000006000200fa00000f780006
:100bec00110020001e0078000008dd008000780055
:100bfc005016800001007000501688000080fa002a
:100c0c00000006000600fa00bdff0700f0fd2f00f3
:100c1c00601988000080eb0050168800f00320005b
:100c2c0040168800310020009001200078ff07005a
:100c3c001e0007008e0078003000200090ff070097
:100c4c001e0078003afe07001e009000a0fe070070
:100c5c002e00900006ff0700f6ff37000400fa0094
:100c6c00000f780011079800110020001e0078007a
:100c7c000008dd000080ea0080007800501680003b
:100c8c000080600050168800110020001e007800c3
:100c9c000008dd0080007800501680000100700014
:100cac00501688000080fa00000006000000fa00d0
:100cbc000021ef00200880000040a1000050a1009e
:100ccc002008880080022000100888008460a90099
:100cdc009460a80005e1a8000080fa00000006005e
:020000040000fa
:040cec000000000004
:020000040000fa
:0200000401f009
:04000000ffff0000fe
:020000040000fa
:0200000401f009
:04000800ffff0000f6
:020000040000fa
:0200000401f009
:04000c0078ff000079
:020000040000fa
:0200000401f009
:040010005bff000092
:020000040000fa
:0200000401f009
:040014007fff00006a
:020000040000fa
:0200000401f009
:04001800ffff0000e6
:020000040000fa
:0200000401f009
:04001c00dfff000002
:00000001FF
